:020000040800F2
:1000000038080020B50100086D200008351D0008E3
:1000100069200008AD0300087D21000800000000F1
:100020000000000000000000000000007520000833
:10003000C9030008000000007120000879200008B2
:10004000CF010008CF010008CF010008CF01000850
:10005000CF010008CF010008CF010008CD03000840
:10006000CF010008CF010008CF010008CF01000830
:10007000CF010008CF010008CF010008CF01000820
:10008000CF010008CF010008CF010008CF01000810
:10009000CF010008B1030008BD030008CF0100082C
:1000A000CF01000881200008CF010008CF0100081F
:1000B0008D20000899200008CF010008CF0100081A
:1000C000CF010008CF010008CF010008CF010008D0
:1000D000CF01000871210008CF010008CF010008FE
:1000E000CF010008CF010008CF01000800F002F89E
:1000F00000F050F814A696E8000CB244B344DA4578
:1001000001D100F047F8BAE80F000FA696E83000DA
:10011000A5EB040504EB0607AAEB0704A7F101070A
:100120004FEA15154FEA3414A4F10104AC4201D38F
:1001300000F030F813F0010F18BFFB1A43F0010371
:1001400000F001F8DBE718474421000064210000BB
:10015000103A24BF78C878C1FAD8520724BF30C8F3
:1001600030C144BF04680C60704700007047000055
:100170000023002400250026103A28BF78C1FBD8B0
:10018000520728BF30C148BF0B6070471FB51FBD65
:1001900010B510BD00F0CFF81146FFF7F7FF01F0E2
:1001A000EFFF00F0EDF803B4FFF7F2FF03BC00F03F
:1001B000F5F800000948804709480047FEE7FEE7D8
:1001C000FEE7FEE7FEE7FEE7FEE7FEE7FEE7FEE707
:1001D00004480549054A064B704700007D20000889
:1001E000ED00000838020020380800203804002004
:1001F00038040020032A40F2308010F0030C00F095
:10020000158011F8013BBCF1020F624498BF11F850
:1002100001CB00F8013B38BF11F8013BA2F1040209
:1002200098BF00F801CB38BF00F8013B11F0030381
:1002300000F04F80083AC0F0088051F8043B083ABB
:1002400051F804CBA0E80810F5E7121D5CBF51F887
:10025000043B40F8043BAFF30080D20724BF11F801
:10026000013B11F801CB48BF11F8012B24BF00F866
:10027000013B00F801CB48BF00F8012B70474FF05D
:10028000000200B5134694469646203922BFA0E8E6
:100290000C50A0E80C50B1F12001BFF4F7AF0907F2
:1002A00028BFA0E80C5048BF0CC05DF804EB8900E3
:1002B00028BF40F8042B08BF704748BF20F8022B26
:1002C00011F0804F18BF00F8012B7047704770473E
:1002D000704710B5203AC0F00B80B1E81850A0E884
:1002E0001850B1E81850A0E81850203ABFF4F5AF04
:1002F0005FEA027C24BFB1E81850A0E8185044BF60
:1003000018C918C0BDE810405FEA827C24BF51F8CC
:10031000043B40F8043B08BF7047D20728BF31F8C0
:10032000023B48BF11F8012B28BF20F8023B48BF11
:1003300000F8012B7047754600F02CF8AE4605001A
:100340006946534620F00700854618B020B5FFF7F0
:100350003FFFBDE820404FF000064FF000074FF090
:1003600000084FF0000BAC46ACE8C009ACE8C0098F
:10037000ACE8C009ACE8C00921F007018D46704720
:1003800010B50446AFF300802046BDE81040FFF7EB
:100390000ABF0000004870472000002001491820D3
:1003A000ABBEFEE72600020070470000FEE700003B
:1003B00040F28000C2F2000000F01AB840F2800063
:1003C000C2F2000000F014B870470000022000F0F4
:1003D000DFBA0000EFF3108072B640F22C20C2F2B8
:1003E000000040F279414180FEE7000070470000C4
:1003F0002DE9F04F81B0044600684669D0F80490BA
:100400008768D0F80CB0D0F810A0D0F81880F107A9
:1004100003D1002530071CD423E0F90710D00121B7
:10042000BA07816009D4780700F1AA80380700F183
:10043000B080204600F0D2F902E0204600F0D0F96A
:100440000025F80500F18480F80300F1AA80300748
:1004500007D51BF0100004D0206845F4007510216A
:10046000C160700708D51BF0080005D0206808217E
:10047000C160204600F0A8F9B00706D52068C06822
:10048000800702D0204600F0A1F9700607D51AF0C7
:10049000100004D0206845F4806510210161B00689
:1004A00008D51AF0080005D020680821016120460F
:1004B00000F08EF9F00606D520680069800702D0AA
:1004C000204600F087F9B00308D519F0100005D0D8
:1004D000206810214160204600F07EF9F00308D525
:1004E00019F0080005D0206808214160204600F07E
:1004F00081F9300440F18F805FEA497040F18880D3
:1005000006F4807008EA102028435FEA88710146EB
:1005100048BF41F00201B20558BF01465FEA48708A
:100520000D4648BF45F00405700558BF0D4630051F
:100530006ED518F070006BD010380009052862D80D
:10054000DFE800F0035C5659535F45F008055AE0B8
:1005500020684FF48071BA0581600AD4780512D4FE
:10056000380519D4204600F03DF9F8037FF56FAF48
:1005700017E0204600F038F9F8037FF568AF10E087
:100580004FF400655DE705F50055F8037FF55FAFB3
:1005900007E04FF4805554E705F58045F8037FF5F3
:1005A00056AF20684FF48031BA0381600AD47803D3
:1005B0000FD4380313D4204600F018F930073FF564
:1005C00048AF4EE7204600F013F930073FF541AF42
:1005D00047E705F5004530073FF53BAF41E705F537
:1005E000803530073FF535AF3BE745F080050AE041
:1005F00045F0200507E045F0400504E045F0100512
:1006000001E045F480752068816921F07001816105
:100610002068042141604DB1606A40EA050120462E
:10062000616201B0BDE8F04FFFF7E0BE01B0BDE888
:10063000F08F0000002804BF01207047B0B50446C9
:1006400090F8200010B9204600F06EF8206801688C
:1006500041F00101016000F0B5FA054620684168EB
:10066000C90705D100F0AEFA401B0B28F6D310E005
:10067000016821F00201016000F0A4FA054600BF04
:100680002068416889070DD500F09CFA401B0B28B3
:10069000F6D3606A052140F400306062012084F8DE
:1006A0002010B0BD217E0268012922F0800208BF1F
:1006B00080320260617E0268012922F0400208BF98
:1006C00040320260A17E0268012922F0200208BFA8
:1006D00020320260E17E0268012922F0100218BF78
:1006E00010320260217F0268012922F0080208BF4F
:1006F00008320260617F0268012922F0040208BF0B
:1007000004320260D4E901C2D4E9033561691A43B5
:100710002A431143ACF101021143C16100200121C0
:10072000606284F82010B0BDB0B586B040F6000419
:10073000C4F201040068A4F524420021904205910E
:10074000CDE90311029101D006B0B0BD41F218000D
:10075000C4F20200426802AD42F000724260426898
:1007600002F000720192019A026842F004020260F3
:10077000006800F00400019001984FF40060CDE99A
:10078000020104912046294600F00EF94FF48050F2
:10079000029002200390032005902046294600F095
:1007A00003F915200021002200F0BCFA152000F00A
:1007B000A7FA16200021002200F0B4FA162000F05B
:1007C0009FFA06B0B0BD00007047000070470000FF
:1007D000704700007047000070470000704700003D
:1007E000704700007047000070470000704700002D
:1007F0007047000070470000014690F82100022871
:1008000013D10868D1E90FC3026822F00E0202601A
:10081000026822F001020260012000FA03F2CCF823
:10082000042081F82100002002E0042088630120D8
:10083000002281F82020704790F82110022923D14E
:10084000026840F2040C1168C4F2020C21F00E019F
:10085000116013682F21C4F202018A4223F00103C0
:10086000136015DD3023C4F202039A421CD04423E6
:10087000C4F202039A421AD05823C4F202039A42E5
:100880001AD14FF480331FE00421816301207047A7
:100890000823C4F202039A420CD01C23C4F20203C0
:1008A0009A4209D110230FE04FF480730CE04FF40B
:1008B000805309E0012307E00CF168014FF08073D9
:1008C0008A4208BF4FF480130121CCF8003080F831
:1008D0002110416B0022002980F8202004BF002055
:1008E000704780B58847002080BD0000022818BFEF
:1008F0007047B0B540F60044C4F20104A4F580602E
:10090000022100F053F940F2C8150028C2F2000598
:1009100020464FF0010104D00022012400F04CF9E0
:100920002DE00122012400F047F995F82B00A0F1F9
:100930000B0102290AD895F8290000F0070105EB00
:10094000D000027D04FA01F111430EE003380228C1
:100950000CD895F82900012200F0070105EBD00022
:10096000037D02FA01F123EA0101017595F82900DE
:100970000021A02838BF411C85F82910022400203E
:1009800085F82D4085F82B00BDE8B0407047000089
:1009900040F21441C4F201010A68024214BF086027
:1009A0007047FFF7A3BF00002DE9F04F82B00E683B
:1009B000002E00F0F78041F20042C4F2010204234D
:1009C00040F2004E904208BF03234FF6FF7CC4F272
:1009D000010E009300240123C1F2100C4FF0000A15
:1009E0004FF000094AE041F20002C4F20102009F08
:1009F000904208BF022704F00C030F229A402BEA12
:100A0000020207FA03F34FEA9A051A4346F8252033
:100A10004E6840F20C45F202DEF8082054BF22EA8C
:100A2000080242EA0802C4F20105CEF808202A684A
:100A3000B30254BF22EA080242EA08022A60B30362
:100A4000DEF8042054BF22EA080242EA0802F30357
:100A5000CEF80420DEF800204FF0010354BF22EA54
:100A6000080242EA0802CEF800200E680AF1010AE4
:100A700036FA0AF204F1040400F0948003FA0AFB47
:100A800016EA0B08F1D04E68664511DC122E51D8DB
:100A9000DFE806F0340A494650505050505050504C
:100AA0005050505050424D00D1F80C9042E000BFE1
:100AB0004FF6FF72C1F2210296420FDC0022C1F212
:100AC000110296421AD00022C1F21202964215D0AB
:100AD0000022C1F22102964210D02BE00022C1F286
:100AE000220296420AD00022C1F23102964205D07B
:100AF0000022C1F2320296421CD100BF8A6842B184
:100B0000012A14BFC0F814B0C0F810B04FF00809A3
:100B100010E04FF004090DE0CA6802F1040909E091
:100B20004FF0000906E0CA6802F1080902E0CA684D
:100B300002F10C0902462646B8F5807F24BF043234
:100B4000203E17680F25B54027EA050509FA06F685
:100B500035431560CA79D2067FF587AF41F2180395
:100B6000C4F202031A68AEF57E7642F001021A6002
:100B70001A6802F001020192019A2AF0030256F863
:100B800002B040F60002C4F20102904208D040F6E2
:100B90000042C4F2010290427FF425AF01272AE708
:100BA000002728E702B0BDE8F08F00008068084009
:100BB00018BF012070470000002A08BF0904016126
:100BC0007047000040F22820C2F200000068704721
:100BD00040F2180040F22821C2F20000C2F20001E7
:100BE00000780A68104408607047000080B542F23F
:100BF0000000C4F20200016841F01001016003200E
:100C000000F0BCF80F2000F005F800F057F80020C5
:100C100080BD0000B0B586B041F21801C4F20201F7
:100C20000A68044642F400620A60096801A801F4F7
:100C3000006101910199694600F094F900F0C8F94A
:100C40004DF68361C4F21B31A0FB01014FF0FF3070
:100C500000EB914140F2A80042F60042C2F20000CF
:100C6000C4F2010240F2E7330025C0E90021C0E9E7
:100C700002530561856100F09DFB08B106B0B0BD6F
:100C800040F2A800C2F2000000F03EFC0028F5D1BE
:100C90000546192000F034F80F2C0CD819202146F5
:100CA000002200F03FF840F21C00C2F20000046095
:100CB000284606B0B0BD012006B0B0BD82B041F2FA
:100CC0001800C4F202000168022241F00101016033
:100CD000016801F0010101910199416841F08051E1
:100CE0004160406800F08050009000980420C4F2F9
:100CF0000100016862F31A61016002B070470000F0
:100D0000002848BF704700F01F01012202FA01F1DC
:100D10001C2202EAD0004EF20012CEF200028150F4
:100D20007047000010B54EF60C5CCEF2000CDCF8FB
:100D30000030C3F3022E8EF00704042C28BF0424D5
:100D4000BEF103034FF0FF3E0EFA04F438BF002358
:100D5000A14399400EFA03F39A43114300F1604214
:100D600000F00F03090102F56442043B63440028CC
:100D700048BF03F10C02117010BD00004EF60C517B
:100D8000CEF200010A684FF6FF031A4060F30A2210
:100D900042F0806040F0FD7008607047002804BF9A
:100DA000012070472DE9F04381B042F20008C4F2FF
:100DB00002080446D8F800000D4600F00700814202
:100DC0000DD9D8F8000020F007002843C8F800002B
:100DD000D8F8000000F00700A84240F07E802068AC
:100DE00041F204098107C4F2020917D5410705D56C
:100DF000D9F8001041F4E061C9F80010010705D5E9
:100E0000D9F8001041F46051C9F80010D9F8001069
:100E1000A26821F0F0011143C9F80010C00753D1B6
:100E2000D8F8000000F0070085420CD2D8F8000086
:100E300020F007002843C8F80000D8F8000000F0B0
:100E40000700A84249D12068410707D5D9F800100A
:100E5000E26821F4E0611143C9F80010000708D5E9
:100E6000D9F80000216920F4605040EAC100C9F8B7
:100E70000000D9F80010C1F3810242F20040C0F234
:100E8000F400DFE802F00206520241F20020C0F254
:100E90007A00D9F8001042F26222C1F30311C0F6C1
:100EA0000002515C40F2000220FA01F140F21C0005
:100EB000C2F200000068C2F200021160FFF7AAFE51
:100EC000002001B0BDE8F083606859F8041C0228D6
:100ED00007D0012826D1890305D4012001B0BDE83F
:100EE000F0838901F9D5D9F8001021F003010843F6
:100EF000C9F80000FFF766FE064641F2883700BFDA
:100F0000D9F80000616800F00C00B0EB810F3FF4ED
:100F100087AFFFF757FE801BB842F1D9032001B01D
:100F2000BDE8F0838907D8D5DDE742F27C23C1F321
:100F30008342C0F600039A5CC90305D440F6001052
:100F4000C0F23D005043A4E7D9F8001042F27A23E2
:100F5000C1F34041C0F60003595C5043B0FBF1F0CF
:100F600097E700000F22026041F20402C4F202027D
:100F7000136803F003034360136803F0F003836016
:100F8000136803F4E063C36012684FF4E06303EA9C
:100F9000D202026142F20000C4F20200006800F0D6
:100FA000070008607047000040F2000041F20401B1
:100FB000C2F20000C4F202010068096842F2722223
:100FC000C1F30221C0F60002515CC8407047000026
:100FD00040F2000041F20401C2F20000C4F202013A
:100FE0000068096842F27222C1F3C221C0F6000211
:100FF000515CC84070470000002804BF01207047C2
:101000002DE9F04182B00446007841F20006C007A5
:10101000C4F2020647D0706800F00C00042808D122
:10102000306880033FD56068E8BB012002B0BDE8AE
:10103000F081706800F00C00082802D17068C003CD
:10104000EED4656830682DB1B5F5A02F09D0B5F59F
:10105000803F0AD020F480303060306820F4802057
:1010600005E040F480203060306840F4803030602B
:10107000FFF7A8FD002D054612D000BF30688003A1
:1010800011D4FFF79FFD401B6428F7D916E100BF7C
:10109000FFF798FD401B64284FF0030000F2D88052
:1010A00030688003F4D42078800719D5706810F078
:1010B0000C0F07D0706800F00C00082827D170686A
:1010C000C00324D43068800703D52069012840F08C
:1010D000A6803068616920F0F80040EAC100306005
:1010E000207800074ED5A06938B30020C4F2422012
:1010F0000121C0F88014FFF765FD0546706A80077E
:101100002DD4FFF75FFD401B0228F7D9D6E02069F8
:10111000002840F20000C4F2422000F0A880012123
:101120000160FFF74FFD054630688007D1D4FFF717
:1011300049FD401B0228F7D9C0E00020C4F242203C
:101140000021C0F88014FFF73DFD0546706A800756
:1011500018D5FFF737FD401B0228F7D9AEE040F263
:101160000000C2F20000006844F6D351C1F26201EF
:10117000A0FB0101480A019000BF0198411E002810
:101180000191F9D12078400717D4E5698DB17068D5
:1011900000F00C00082846D1012D40D07068216A6B
:1011A00000F480328A423AD1616A00F470108842B9
:1011B00035D1002002B0BDE8F081F0695FEAC008D7
:1011C00008D4F06940F08050F061F06900F0805080
:1011D0000090009847F20007C4F200073868C00585
:1011E0000FD4386840F480703860FFF7EBFC054698
:1011F0003868C00505D4FFF7E5FC401B6428F7D923
:101200005CE0E568306A1DB1052D41D0012D43D069
:1012100020F001003062306A20F004003EE001203E
:1012200002B0BDE8F0810027C4F2422700203866F2
:10123000FFF7C8FC022D05460ED100BF30688001C3
:1012400053D5FFF7BFFC401B02284FF00300F5D930
:1012500002B0BDE8F08100BF30688001A9D5FFF77A
:10126000B1FC401B02284FF00300F5D9F0E7002144
:101270000160FFF7A7FC0546306880077FF530AFB7
:10128000FFF7A0FC401B02284FF00300F4D9DFE772
:1012900040F004003062306A40F001003062FFF735
:1012A00091FC002D054641F2883712D0306A800744
:1012B00012D4FFF787FC401BB842F7D9032002B0D5
:1012C000BDE8F081FFF77EFC401BB8424FF0030001
:1012D000BED8306A8007F5D4B8F1000F3FF555AF9E
:1012E000F06920F08050F0614FE7206AB0F5803F50
:1012F00005D17168A26821F40031114371607168F1
:10130000626A21F474111143084370600120386649
:10131000FFF758FC044600BF306880013FF549AF35
:10132000FFF750FC001B02284FF00300F4D98FE7B1
:10133000704700007047000090F83C20012A4FF0F1
:10134000020234D010B5012380F83C3080F83D20F3
:101350000268D2F804E0D2F808C00C682EF07003DE
:10136000234340F2FF74C4F20004A242536005DC40
:10137000B2F1804F0ED040F2004307E042F6004346
:10138000C4F201039A4205D040F60003C4F2000300
:101390009A4204D149682CF08003194391600121DD
:1013A000002280F83D1080F83C20BDE81040104637
:1013B00070470000002804BF0120704710B590F866
:1013C0003D1031B9002180F83C10044600F066F869
:1013D0002046022180F83D10016840F2FF740B683E
:1013E000C4F2000442F6004CA142C4F2010C05DC38
:1013F000B1F1804F0AD040F2004203E0614505D0D0
:1014000040F60002C4F20002914203D1826823F048
:1014100070031343A14205DCB1F1804F0AD040F2C2
:10142000004203E0614505D040F60002C4F200022C
:10143000914203D1026923F440731343846923F07A
:101440008002D0F804E0C368224361450A60CB62A1
:10145000C1F828E002D14269CCF8302001224A616B
:101460000B69DB0703D00B6923F001030B6180F8E4
:10147000462080F83E2080F83F2080F8402080F809
:10148000412080F8422080F8432080F8442080F8F2
:10149000452080F83D20002010BD000010B582B02E
:1014A000006840F20041C4F20001884211D0B0F15E
:1014B000804F27D141F21C00C4F2020001681C24B5
:1014C00041F001010160006800F001000190019805
:1014D0000DE041F21C00C4F2020001681D2441F03D
:1014E00002010160006800F00200009000982046B0
:1014F00000210022FFF716FC204602B0BDE8104094
:10150000FFF7FEBB02B010BD90F83D1001291CBFD3
:1015100001207047022180F83D10006840F2FF7200
:10152000C168C4F20002904241F00101C16005DCD3
:10153000B0F1804F0ED040F2004107E042F600418A
:10154000C4F20101884205D040F60001C4F2000156
:10155000884206D1816801F00701062904BF0020F6
:101560007047016841F001010160002070470000F0
:1015700090F83C20012A4FF002026ED080B5012382
:1015800080F83C3080F83D20D0F800C04FF67772EC
:10159000DCF8083023EA0202CCF808200B684F2B55
:1015A00028DC1F2B44DD202B45D0302B43D0402B93
:1015B00040F0AC80D1F804E0C968DCF82030DCF8F9
:1015C000202022F00102CCF82020DCF8182022F0A4
:1015D000F00242EA011123F00A0242EA0E02CCF8BC
:1015E0001810CCF82020DCF8081041F0470121F059
:1015F000300127E06F2B32DDB3F5005F73D0B3F518
:10160000805F21D0702B40F08180D1E901E3C9686F
:10161000DCF8082043EA0E0322F47F4243EA01216A
:101620001143CCF80810DCF8081041F0770109E00C
:101630000BB1102B6AD1DCF8081021F070011943AE
:1016400041F00701CCF808100022012180F83D107C
:10165000002180F83C10BDE8804010467047502BB8
:1016600021D0602B52D1D1F804E0C968DCF82030D9
:10167000DCF8202022F01002CCF82020DCF8182022
:1016800022F4704242EA013123F0A00242EA0E1233
:10169000CCF81810CCF82020DCF8081041F06701D5
:1016A00021F01001CEE7D1F804E0C968DCF8203061
:1016B000DCF8202022F00102CCF82020DCF81820F1
:1016C00022F0F00242EA011123F00A0242EA0E027D
:1016D000CCF81810CCF82020DCF8081041F05701A5
:1016E00021F02001AEE7D1E901E3C968DCF8082068
:1016F00043EA0E0322F47F4243EA01211143CCF86E
:101700000810DCF8081041F480419BE701229CE7B7
:101710007047000070B504460068C5680669B107E7
:1017200016D515F0020113D06FF0020101610121FD
:1017300021778069800703D02046FFF7E9FF05E0A5
:10174000204600F08DF8204600F08CF8002020772D
:10175000700718D515F0040015D020686FF004014B
:10176000016102212177806910F4407F03D0204677
:10177000FFF7CEFF05E0204600F072F8204600F0AB
:1017800071F800202077300717D515F0080014D025
:1017900020686FF00801016104212177C06980078A
:1017A00003D02046FFF7B4FF05E0204600F058F8CC
:1017B000204600F057F800202077F00618D515F0E5
:1017C000100015D020686FF0100101610821217709
:1017D000C06910F4407F03D02046FFF799FF05E071
:1017E000204600F03DF8204600F03CF8002020772D
:1017F000F00718BF15F0010002D1300609D412E03D
:1018000020686FF001010161204600F02DF83006DC
:1018100009D515F0800006D020686FF080010161C5
:101820002046FFF785FD700609D515F0400006D06B
:1018300020686FF040010161204600F037F8B006E3
:1018400058BF70BD15F0200008D021686FF020024D
:1018500020460A61BDE87040FFF76CBD70BD000016
:10186000704700007047000010B50446006842F65B
:101870000041C4F20101884208BFFFF7A9F92068BE
:10188000B0F1804F18BF10BD40F2C810C2F2000086
:1018900090F82C00012805D040F20400C2F20000AC
:1018A00000F04AFABDE8104000F0A8BA7047000006
:1018B0007047000070470000B0B582B001680A6848
:1018C000CC684B6902F02F05202D04F0200505D1CE
:1018D00025B102B0BDE8B04000F0EABB5FEA027C8F
:1018E0001EBF03F0010E04F4907313EB0E0340D1FE
:1018F000036BD50618D5012B16D114F0100313D0A5
:10190000002201920A6801924A680192019A49698B
:10191000490647D4818DC28DC38D002B18BF9142DB
:1019200040F0108102B0B0BD13062AD514F0800338
:1019300027D090F84120212AF4D18268B2F5805F47
:1019400003D10269002A00F03081026A531C03624D
:1019500012784A60C28C013A1304C284E2D1C8688A
:1019600020F08000C860C86840F04000C86002B045
:10197000B0BDD10718BF14F480715CD1510760D499
:1019800066E05206CED514F04002CBD0CA6822F0F1
:101990004002CA60202180F8411002B0BDE8B0408A
:1019A00000F0C6B9C16B0A68526893B2002BB9D077
:1019B000858DAB42B6D2C2858969202934D000BF5B
:1019C000016851E8031F026821F4807142E80313A3
:1019D000002BF5D1016851E8051F026821F00101D3
:1019E00042E80513002BF5D1016851E8051F026894
:1019F00021F0400142E80513002BF5D1202180F8A9
:101A000042100021016300BF016851E8031F026812
:101A100021F0100142E80313002BF5D1C16B0446FD
:101A20000846FEF7E9FE204602214163818DC28D02
:101A3000891A89B2AFE0416C41F00101416451075C
:101A400006D5BEF1000F03D0416C41F002014164A4
:101A5000910706D5BEF1000F03D0416C41F004019F
:101A60004164BCF1000F06D55EEA050103D0416C6C
:101A700041F008014164416C00293FF453AF9106E5
:101A800004D51DB1044600F013FB204601684969E6
:101A9000426C01F0400102F0080289184BD000BFEF
:101AA000016851E8031F026821F4907142E80313B2
:101AB000002BF5D1016851E8051F026821F00101F2
:101AC00042E80513002BF5D1016B01290AD100BFB3
:101AD000016851E8031F026821F0100142E8031376
:101AE000002BF5D1202180F842100021016301680C
:101AF0004969490654D500BF016851E8051F0268CD
:101B000021F0400142E80513002BF5D1C16B0029FB
:101B100046D042F2A502C0F60002044608464A63D7
:101B2000FEF78AFE00283FF4FDAEE06B416B02B089
:101B3000BDE8B04008470446FFF7BCFE00206064E3
:101B400002B0B0BD891A00BF026852E8032F0368D3
:101B500022F4907243E80325002DF5D1026852E883
:101B6000052F036822F0010243E80525002DF5D179
:101B7000202280F842200022026300BF026852E85F
:101B8000032F036822F0100243E80325002DF5D14E
:101B9000022289B2426302B0BDE8B040FFF788BEBE
:101BA00002B0BDE8B040FFF785BE026A32F8023BE2
:101BB0006FF35F234B600262CCE60000002804BF95
:101BC0000120704710B5044690F8410028B9002064
:101BD00084F84000204600F061F8242084F8410099
:101BE0002068D4E90212C36823F40053C360036978
:101BF00023F440531A430261D4E904231143C26819
:101C0000194341F20C639A431143C1604169A269CF
:101C100021F44071114343F60002C4F201029042E4
:101C2000416102D0FFF7C0F901E0FFF7D1F9D4E933
:101C30000023192148439900B0FBF1F048F21F5CE2
:101C4000C5F2EB1CA0FB0C314FF69C734909C0F6A2
:101C5000FF7301FB0300322303EB0010A0FB0C0316
:101C6000F02000EA531000EB0110C3F343110844C5
:101C700090601069202120F490401061506920F09C
:101C80002A005061D06840F40050D06000206064A9
:101C900084F8411084F84210606310BD70B586B0BE
:101CA00040F60004C4F20104006804F54051002627
:101CB00088420596CDE90366029601D006B070BD54
:101CC00041F21800C4F20200016802AD41F4804103
:101CD0000160016801F4804101910199016841F0BE
:101CE000040101600068294600F004000190019899
:101CF0004FF40070029002200390032005902046CC
:101D0000FEF752FE4FF48060CDE9020620462946D8
:101D10000496FEF749FE252000210022FFF702F875
:101D20002520FEF7EDFF06B070BD000070470000F3
:101D300070470000FEE7000010B540F2F814C2F250
:101D40000004014620461422FEF754FA012084F8CC
:101D50002C0010BDB0B540F2F815C2F2000595F8A0
:101D60002C00012818BFB0BD95F8280095F82A105E
:101D7000C208AA5C00F00703DA40D20712D00B2990
:101D800012D90F2928D840F60004C4F2010404F542
:101D900080604FF400710022FEF70EFF20462021E4
:101DA00000220FE0032915D840F60004C4F2010414
:101DB00004F580604FF400710122FEF7FDFE20461D
:101DC00020210122FEF7F8FE95F82A00013085F85F
:101DD0002A00B0BD0729D6D900219F2885F82A10EE
:101DE00005D8013085F82800FFF7B4FFECE70220A2
:101DF00085F8281085F82C00E6E7000040F2F8107E
:101E0000C2F2000090F82D10012918BFFFF7A2BF01
:101E100090F82B10013180F82B10FFF79BBF0000CA
:101E200080B540F2800046F20041C2F20000C4F2E8
:101E300000010222002380E80E0000F10C014FF4A3
:101E4000602C4FF4801E81E8085083618383FEF785
:101E5000F1FB002808BF80BDBDE88040FEF7BABA9C
:101E60002DE9F04F85B0002741F21800CDE9037746
:101E7000CDE90177C4F20200016840F6000B41F0A1
:101E8000200101600168C4F2010B01F02001009102
:101E900000990168002241F00401016001684FF0DF
:101EA000200801F0040100910099016841F0080147
:101EB00001600068202100F008000090009858465A
:101EC000FEF77AFE0BF58064204640F201610022A5
:101ED00040F20169FEF770FE0020C1F2310001AE50
:101EE0004FF0020ACDE9020758463146CDF804A06A
:101EF000FEF75AFD012502A880E8A00458463146A5
:101F0000CDF80480FEF750FD20463146CDE901951D
:101F1000CDE9037AFEF748FD072005210022FEF7F0
:101F200001FF0720FEF7ECFE05B0BDE8F08F0000D2
:101F300080B586B040F2F0000021C2F200004FF4FC
:101F4000CA7CCDE90411CDE90211CDE900114FF0B1
:101F500080423123C0E9021C01618021C0E90023D5
:101F60008161FFF727FA002818BFFEF733FA4FF414
:101F70008050029040F2F000C2F2000002A9FFF788
:101F8000F7FA002818BFFEF725FA0020CDE9000077
:101F900040F2F000C2F200006946FFF7CDF90028D8
:101FA00018BFFEF717FA06B080BD000080B586B0F6
:101FB00040F238100021C2F2000040F2004240F22C
:101FC000E73CCDE90411CDE90211CDE90011C4F2DD
:101FD00000022323C0E9021C01618021C0E9002323
:101FE0008161FFF7E7F9002818BFFEF7F3F94FF416
:101FF0008050029040F23810C2F2000002A9FFF7B0
:10200000B7FA002818BFFEF7E5F90020CDE9000077
:1020100040F23810C2F200006946FFF78DF900283F
:1020200018BFFEF7D7F906B080BD000080B540F2BA
:10203000801043F60001C2F20000C4F20101002347
:102040004FF00C0C4FF4E13280E80E00C0E903338E
:10205000C0E905C3C361FFF7B1FD002808BF80BD1B
:10206000BDE88040FEF7B6B9FEE70000FEE70000DD
:102070007047000070470000704700007047000084
:1020800040F2A800C2F20000FFF744BB40F2F000AB
:10209000C2F20000FFF73EBB40F23810C2F200006F
:1020A000FFF738BB406A0021C185C184FFF702BC3D
:1020B00090F84210222918BF70478268B2F5805FFD
:1020C00002D1016900294AD0816AB2F5805F07D048
:1020D0000AB9026922B10268526802F07F0201E087
:1020E000026852680A70816A01318162C18D0139CA
:1020F0000A04C18500D070470168CA6822F0200236
:10210000CA60CA6822F48072CA604A6922F0010279
:102110004A61202180F8421000214163026B012AAC
:1021200018BFFFF703BE81B0016300BF016851E82B
:10213000031F026821F0100142E80313002BF5D1C0
:1021400001680A68D20606D5002200920A68009249
:10215000496800910099818D01B0FFF7A9BB016822
:10216000826A49686FF35F2122F8021B8262BDE731
:1021700040F28010C2F20000FFF79EBBFEE70000B5
:1021800090B0FEF733FD06AC20462821FEF777F825
:10219000012006900A904FF4E01000254FF48031A2
:1021A0004FF4003202260F9020460595CDE90355E5
:1021B000CDE9015507910892CDE90D61FEF71CFFAD
:1021C00058B1EFF3108072B640F22C20C2F200003A
:1021D00040F27941418000BFFEE70F20CDE90106C2
:1021E0004FF48060CDE9040501A802210395FEF7B4
:1021F000D5FD50B1EFF3108072B640F22C20C2F240
:10220000000040F279414180FEE7FFF729FEFFF729
:1022100007FEFFF78DFEFFF7C9FEFFF707FF40F24D
:10222000F000C2F20000FFF76FF940F23810C2F27E
:102230000000FFF769F940F2C81040F20401C2F251
:102240000000C2F200011422FDF7D4FF40F6004066
:10225000C4F201004FF480610122FEF7ADFC00BF23
:10226000FEE7000000000000000001020304060772
:102270000809000000000102030401020203040532
:10228000060708090A0B0C0D0E0F1010B0220008EB
:10229000000000202000000050010008D0220008AB
:1022A0002000002018080000700100080000000055
:1022B00000127A0000112233445566778899AABB30
:1022C000CCDDEEFFA55A0FF0010000001000000069
:04000005080000ED02
:00000001FF
